:0400000034EF0CF0DD
:100F000000340000000013A20040489494534900AC
:100F1000000E096E010E0A6EDCEC09F07D0E016E0A
:100F2000010E026EADEC0CF07D0E016E010E026E34
:100F3000010E036EA4EC0BF07D0E016E010E026E2D
:100F4000020E036EA4EC0BF07D0E096E010E0A6E0C
:100F50000D0E0B6E0F0E0C6E7BEC0BF07D0E016E0A
:100F6000010E026E18C003F019C004F01FEC0AF065
:100F70007D0E016E010E026E1AC003F01BC004F05C
:100F80001FEC0AF07D0E016E010E026E12C003F01E
:100F900013C004F01FEC0AF07D0E016E010E026E0C
:100FA00016C003F017C004F01FEC0AF07D0E016EAE
:100FB000010E026E14C003F015C004F01FEC0AF01D
:100FC000000E016E010E026E060E036E050E046E1B
:100FD0000F0E056E030EF66E0F0EF76E0800F5CFBE
:100FE00006F0040EF66E0F0EF76E0800F5CF07F050
:100FF0007D0E086E010E096EE1C10AF007EC08F0E3
:10100000000E026E010E036E86EC08F01200020E56
:1010100001240E6E000E02200F6E080E0D6E10D011
:1010200004C0F6FF05C0F7FF0EC0D9FF0FC0DAFFFE
:101030000800F5CFDFFF044A052A0E4A0F2A00D028
:101040000D060D28D8A4ECD70E0E01240E6E000E4E
:1010500002200F6E0AC00DF00FD008C0D9FF09C0E2
:10106000DAFF0EC0E1FF0FC0E2FFDFCFE7FF084A63
:10107000092A0E4A0F2A00D00D060D28D8A4EDD754
:101080000A0E01240E6E000E02200F6E0EC0D9FF54
:101090000FC0DAFFFF0EDF6E0E4A0F2A0EC0D9FF17
:1010A0000FC0DAFFFE0EDF6E0E4A0F2A20EE0CF0A4
:1010B0000150D9260250DA2206C0DFFF20EE0DF0E3
:1010C0000150D9260250DA2207C0DFFF01C0D9FF44
:1010D00002C0DAFF100EDF6E20EE01F00150D926BB
:1010E0000250DA2203C0DFFF0A500B6E0C6A0E0EAC
:1010F0000B26000E0C2220EE75F00150D92602506E
:10110000DA220BC0DEFF0CC0DDFF120002C006F0C9
:1011100003C007F07E0EC0EC0DF020EE75F002501B
:10112000D9260350DA22DECF04F0DDCF05F005C06A
:1011300004F0056A0450C0EC0DF020EE75F002508A
:10114000D9260350DA22DF50C0EC0DF020EE77F004
:101150000250D9260350DA22000EDF6E18D006C0E6
:10116000D9FF07C0DAFFDF50C0EC0DF006C0D9FF91
:1011700007C0DAFFDF50046E20EE77F00250D92668
:101180000350DA220450DF26064A072A00D020EE58
:1011900075F00250D9260350DA22DE06000EDD5A21
:1011A000DE28DDE1DE28D8A4DAD720EE77F0025081
:1011B000D9260350DA22DF500008046E0404C0EC84
:1011C0000DF0000EC0EC0DF012001200020E012412
:1011D0000C6E000E02200D6E08C00BF004C0D9FF8B
:1011E00005C0DAFF0CC0E1FF0DC0E2FFDFCFE7FF73
:1011F000044A052A0C4A0D2A04C0D9FF05C0DAFFAB
:101200000CC0E1FF0DC0E2FFDFCFE7FF0C4A0D2A63
:10121000040E01240C6E000E02200D6E0FD006C0CD
:10122000D9FF07C0DAFF0CC0E1FF0DC0E2FFDFCF3E
:10123000E7FF064A072A0C4A0D2A00D00B060B28A6
:10124000D8A4EDD701C0D9FF02C0DAFF080EDF6EC7
:1012500020EE01F00150D9260250DA2203C0DFFF50
:101260000850096E0A6A040E0926000E0A2220EEB2
:1012700075F00150D9260250DA2209C0DEFF0AC0FB
:10128000DDFF1200000E0C6E9290898092EC0CF043
:1012900009D0030E18EC0BF003D0050E18EC0BF080
:1012A0000C2608D00950030AD8B4F3D7060AD8B4DC
:1012B000F4D700D0030EE82EFED700F0928000D0C5
:1012C00080B0FED7010E4AEC0BF00A6E0B6A05C027
:1012D000D9FF06C0DAFF0AC0DEFF0BC0DDFF05C084
:1012E000D9FF06C0DAFFDECF0AF0DDCF0BF00AC06F
:1012F0000BF00A6A05C0D9FF06C0DAFF0AC0DEFF9C
:101300000BC0DDFF010E4AEC0BF00A6E0A5005C05F
:10131000D9FF06C0DAFFDE26000EDD22000E4AEC01
:101320000BF007C0D9FF08C0DAFFDF6E0C501200C7
:1013300012004CEC0DF03FEC0DF004EC0EF001EC63
:101340000EF0C7EC0DF0E9EC0DF000D0C0A606D011
:101350000F014BA103D085EC0DF029D0C0A606D01B
:101360000F014AA503D0B1EC0DF021D0C0A606D0E4
:101370000F014AA903D097EC0DF019D0C0A603D0F5
:101380000F014ABB05D0C0A605D00F014AA702D065
:10139000C0960DD0C0B603D0F3EC0DF008D00F010D
:1013A0004AAF05D0C0960F014A9FFFD700D0DFECAF
:1013B0000CF0CCD700EF00F020EE79F00950D926E0
:1013C0000A50DA2209C0DEFF0AC0DDFF20EE77F006
:1013D0000950D9260A50DA22000EDF6E20EE78F08E
:1013E0000950D9260A50DA22000EDF6E20EE75F081
:1013F0000950D9260A50DA22000EDE6E000EDD6E8C
:1014000020EE7BF00950D9260A50DA22000EDF6E5A
:1014100009C0D9FF0AC0DAFF000EDF6E010E0924F1
:10142000016E000E0A20026E000E046E000E036EA6
:10143000000E066E640E056EF7EC0CF0120003C091
:1014400006F00450076E20EE64F00150D9260250D9
:10145000DA22620EDF60120020EE64F00150D9261D
:101460000250DA22DF50056E0550010DF3500124C1
:10147000D96EF4500220DA6E07C0DFFF20EE64F070
:101480000150D9260250DA22DF2A20EE64F0015002
:10149000D9260250DA22DF50056E0550010DF350B7
:1014A0000124D96EF4500220DA6E06C0DFFF20EE70
:1014B00064F00150D9260250DA22DF2A120012000D
:1014C000086E000E096E000E0A6E000E0B6E000E06
:1014D0000C6E100E0D6E08C005F005460546C25094
:1014E0000518C30B0518C26EC280B9EC0DF010D000
:1014F000000EC46E000EC36EC282A9EC0DF0015046
:10150000092602500A22000E0B22000E0C2200D0E7
:101510000D060D28D8A4ECD709C005F00AC006F0C6
:10152000040E076ED89006320532072EFBD703C093
:10153000D9FF04C0DAFF05C0DEFF06C0DDFFC290A0
:101540001200050E056E000E066E23D0250E08183B
:10155000D8B404D007D0014A022A1BD0000E076E6F
:1015600009D025D001C0D9FF02C0DAFF08C0DFFFD3
:10157000F2D70FD003C0F6FF04C0F7FF034A042AD6
:101580000800F5CF08F00850000AD8B410D0EAD708
:1015900000D003C0F6FF04C0F7FF034A042A080086
:1015A000F5CF08F00850D8B402D0D0D700D001C091
:1015B000D9FF02C0DAFF000EDF6E12001200020E29
:1015C0000124066E000E0220076E04C0D9FF05C07C
:1015D000DAFF06C0E1FF07C0E2FFDFCFE7FF044A02
:1015E000052A064A072A04C0D9FF05C0DAFF06C04B
:1015F000E1FF07C0E2FFDFCFE7FF064A072A01C08D
:10160000D9FF02C0DAFF080EDF6E20EE01F00150B4
:10161000D9260250DA2203C0DFFF20EE75F0015018
:10162000D9260250DA22040EDE6E000EDD6E1200A4
:10163000026E000E036E800E046E0450D8B419D0F2
:1016400001D017D0045002140009D8B402D0898008
:1016500002D0899000D00A0E8EEC0DF089820A0E1D
:101660008EEC0DF089920A0E8EEC0DF0D8900432BB
:10167000E4D789800A0E8EEC0DF089820A0E8EEC7A
:101680000DF09280000E80B0010E036E899203501F
:1016900012001200026E000E036E92808980800E8E
:1016A000046E0450D8B413D001D011D00A0E8EECC1
:1016B0000DF0898280A004D003500410036E00D086
:1016C0000A0E8EEC0DF08992D8900432EAD70250BF
:1016D000D8B403D09290899000D00A0E8EEC0DF011
:1016E00089820A0E8EEC0DF089920A0E8EEC0DF0B6
:1016F00003501200120020EE64F00950D9260A505F
:10170000DA22DF500D6E0D50010DF35009240E6EDC
:10171000F4500A200F6E0EC001F00FC002F00BC093
:1017200003F00CC004F0A1EC0AF00BC001F00CC0F7
:1017300002F055EC0CF020EE64F00950D9260A5066
:10174000DA220150DF26120020EE64F00150D92683
:101750000250DA22630EDF60120020EE64F00150C6
:10176000D9260250DA22DF50046E0450010DF350E6
:101770000124D96EF4500220DA6E03C0DFFF20EEA0
:1017800064F00150D9260250DA22DF2A120012003A
:10179000000E0F6E0DC005F00EC006F0040E0D24F5
:1017A000076E000E0E20086E030E096E42EC09F063
:1017B0000F26020E0D24056E000E0E20066E050E7D
:1017C0000D24076E000E0E20086E050E096E42EC09
:1017D00009F00F26120012000E6E0EC00FF0000E60
:1017E000106E600E096E000E0A6EDCEC09F0600EE1
:1017F000016E000E026E010E036E250E046E000EC9
:10180000056E0F0E066E000E076E010E086EE6ECFA
:1018100008F0600E026E000E036E86EC08F01200F7
:101820000E6E0EC00FF0000E106E600E096E000EF0
:101830000A6EDCEC09F0600E016E000E026E010E05
:10184000036E1F0E046E000E056E0F0E066E000E68
:10185000076E010E086EE6EC08F0600E026E000ED8
:10186000036E86EC08F0120000EE60F07D0EEE6A6A
:10187000E806FDE100EE11F00D0EEE6AE806FDE16E
:10188000BE0EF66E1B0EF76E000EF86E00EE1EF02A
:1018900010EE0AF00900F5CFEEFFE550E150FAE155
:1018A000000EF86E000199EF09F001C005F002C0CA
:1018B00006F003D0054A062A00D005C0F6FF06C090
:1018C000F7FF0800F5500009D8A4F4D701C003F0D1
:1018D00002C004F0031E041E034A042A0550032418
:1018E000016E06500420026E12001200FEEC0DF094
:1018F0000EC003F00FC004F00A0E60EC0AF0040EF4
:101900000E24036E000E0F20046E0B0E60EC0AF026
:10191000020E0E24036E000E0F20046E090E60EC02
:101920000AF01200898089920A0E8EEC0DF08982ED
:101930000A0E8EEC0DF089900A0E8EEC0DF0899255
:101940000A0E8EEC0DF089820A0E8EEC0DF0898065
:101950000A0E8EEC0DF089921200630E036E20EEDB
:1019600064F00150D9260250DA2208D00350010D4C
:10197000F3500124D96EF4500220DA6E000EDF6EAF
:1019800000D003060328D8A4F1D71200600E096E18
:10199000000E0A6EDCEC09F0600E016E000E026EA5
:1019A000010E036E220E046E000E056EDFEC0AF0CF
:1019B000600E026E000E036E86EC08F01200000E40
:1019C0000F014A6F000E0F014B6FD0940F014C9521
:1019D0000F014C930F014D930F014D81C096F29E64
:1019E000C090C08ED39E0F014D8F0300120001C026
:1019F00007F002C008F009D007C0D9FF08C0DAFF1D
:101A000003C0DFFF074A082A00D00506D8A0060653
:101A10000528F2E10628D8A4EFD71200F8EC0DF063
:101A2000180E0D6E000E0E6EC8EC0BF007EC0EF0EB
:101A3000FBEC0DF0120E0E6E000E0F6E76EC0CF03D
:101A400012003F0EC216C18EC196C198C19AC190B4
:101A5000C192C1940F01499F0F01499DC29012008C
:101A6000C6EC0CF0640E65EC0DF0010E10EC0CF001
:101A7000640E65EC0DF0080EECEC0BF01200000E9D
:101A80009F6E000EA26E000EA56E000E9E6E000EE2
:101A9000A16E000EA46E12000F014CA102D00F0126
:101AA0004C910F0148690F014969D388D38AD38CBF
:101AB00012000F01499593820F01499793820F01FC
:101AC0004993938694908B901200026E0D0E016ED6
:101AD000FC0EE82EFED7012EFCD7022EF7D71200FF
:101AE0001200016E948E949CAC88AD84AD8AAC8E4D
:101AF00001C0B0FF7E8612000F0148810F014883AC
:101B000089809292929089921200CDEC0DF009ECAE
:101B10000EF00EEC0DF088EC07F01200016E030ED3
:101B2000E82EFED700F0012EFAD712001200C09660
:101B3000C6EC0CF0640EA0EC0DF030EC0DF01200D1
:101B4000016E210EE82EFED700F0012EFAD712000A
:101B5000120000D0C2B2FED7C3CF01F0C4CF02F052
:101B60001200D9EC0DF00A0E65EC0DF030EC0DF022
:101B70001200C18CC28200D0C2B2FED7C19C12003A
:101B8000016E00D0ADA2FED701C0AEFF12001E5004
:101B900071EC0DF0E4EC0DF01200C0960F014B91CA
:101BA0000F014C91120065960F013F950F013F9F69
:101BB0001200C0960F014A950F014C911200CF43BD
:101BC0004200465200534D009380F18CF292F2880D
:101BD00012007CEC0DF0EEEC0DF0120021EC0DF09B
:101BE00059EC0DF0120030EC0DF0D3EC0DF01200BA
:101BF000929A808A12009394818412008B808B9039
:101C00001200D08EF28C1200000EF26E1200809A3A
:061C10001200F292120026
:08FFF800AEF718FAA1F881F13F
:00000001FF
