:0400000044EF0CF0CD
:100F000000340000000013A20040489494534300B2
:100F1000000E096E010E0A6EECEC09F07D0E016EFA
:100F2000010E026EA1EC0CF07D0E016E010E026E40
:100F3000010E036EB4EC0BF07D0E016E010E026E1D
:100F4000020E036EB4EC0BF07D0E096E010E0A6EFC
:100F50000D0E0B6E0F0E0C6E8BEC0BF07D0E016EFA
:100F6000010E026E12C003F013C004F02FEC0AF061
:100F70007D0E016E010E026E14C003F015C004F068
:100F80002FEC0AF07D0E016E010E026E1AC003F006
:100F90001BC004F02FEC0AF07D0E016E010E026EF4
:100FA00018C003F019C004F02FEC0AF07D0E016E9A
:100FB000010E026E12C003F013C004F02FEC0AF011
:100FC0007D0E016E010E026E010EF66E0F0EF76EB3
:100FD0000900F5CF03F00A00F5CF04F02FEC0AF07A
:100FE000000E016E010E026E060E036E050E046EFB
:100FF0000F0E056E030EF66E0F0EF76E0800F5CF9E
:1010000006F0040EF66E0F0EF76E0800F5CF07F02F
:101010007D0E086E010E096EE1C10AF017EC08F0B2
:10102000000E026E010E036E96EC08F01200020E26
:1010300001240E6E000E02200F6E080E0D6E10D0F1
:1010400004C0F6FF05C0F7FF0EC0D9FF0FC0DAFFDE
:101050000800F5CFDFFF044A052A0E4A0F2A00D008
:101060000D060D28D8A4ECD70E0E01240E6E000E2E
:1010700002200F6E0AC00DF00FD008C0D9FF09C0C2
:10108000DAFF0EC0E1FF0FC0E2FFDFCFE7FF084A43
:10109000092A0E4A0F2A00D00D060D28D8A4EDD734
:1010A0000A0E01240E6E000E02200F6E0EC0D9FF34
:1010B0000FC0DAFFFF0EDF6E0E4A0F2A0EC0D9FFF7
:1010C0000FC0DAFFFE0EDF6E0E4A0F2A20EE0CF084
:1010D0000150D9260250DA2206C0DFFF20EE0DF0C3
:1010E0000150D9260250DA2207C0DFFF01C0D9FF24
:1010F00002C0DAFF100EDF6E20EE01F00150D9269B
:101100000250DA2203C0DFFF0A500B6E0C6A0E0E8B
:101110000B26000E0C2220EE75F00150D92602504D
:10112000DA220BC0DEFF0CC0DDFF120002C006F0A9
:1011300003C007F07E0EC7EC0DF020EE75F00250F4
:10114000D9260350DA22DECF04F0DDCF05F005C04A
:1011500004F0056A0450C7EC0DF020EE75F0025063
:10116000D9260350DA22DF50C7EC0DF020EE77F0DD
:101170000250D9260350DA22000EDF6E18D006C0C6
:10118000D9FF07C0DAFFDF50C7EC0DF006C0D9FF6A
:1011900007C0DAFFDF50046E20EE77F00250D92648
:1011A0000350DA220450DF26064A072A00D020EE38
:1011B00075F00250D9260350DA22DE06000EDD5A01
:1011C000DE28DDE1DE28D8A4DAD720EE77F0025061
:1011D000D9260350DA22DF500008046E0404C7EC5D
:1011E0000DF0000EC7EC0DF012001200020E0124EB
:1011F0000C6E000E02200D6E08C00BF004C0D9FF6B
:1012000005C0DAFF0CC0E1FF0DC0E2FFDFCFE7FF52
:10121000044A052A0C4A0D2A04C0D9FF05C0DAFF8A
:101220000CC0E1FF0DC0E2FFDFCFE7FF0C4A0D2A43
:10123000040E01240C6E000E02200D6E0FD006C0AD
:10124000D9FF07C0DAFF0CC0E1FF0DC0E2FFDFCF1E
:10125000E7FF064A072A0C4A0D2A00D00B060B2886
:10126000D8A4EDD701C0D9FF02C0DAFF080EDF6EA7
:1012700020EE01F00150D9260250DA2203C0DFFF30
:101280000850096E0A6A040E0926000E0A2220EE92
:1012900075F00150D9260250DA2209C0DEFF0AC0DB
:1012A000DDFF1200000E0C6E9290898086EC0CF02F
:1012B00009D0030E28EC0BF003D0050E28EC0BF040
:1012C0000C2608D00950030AD8B4F3D7060AD8B4BC
:1012D000F4D700D0030EE82EFED700F0928000D0A5
:1012E00080B0FED7010E5AEC0BF00A6E0B6A05C0F7
:1012F000D9FF06C0DAFF0AC0DEFF0BC0DDFF05C064
:10130000D9FF06C0DAFFDECF0AF0DDCF0BF00AC04E
:101310000BF00A6A05C0D9FF06C0DAFF0AC0DEFF7B
:101320000BC0DDFF010E5AEC0BF00A6E0A5005C02F
:10133000D9FF06C0DAFFDE26000EDD22000E5AECD1
:101340000BF007C0D9FF08C0DAFFDF6E0C501200A7
:10135000120051EC0DF044EC0DF003EC0EF000EC3B
:101360000EF0CEEC0DF0B2EC0DF000D0C0A606D021
:101370000F014BA103D07EEC0DF029D0C0A606D002
:101380000F014AA503D0AAEC0DF021D0C0A606D0CB
:101390000F014AA903D090EC0DF019D0C0A603D0DC
:1013A0000F014ABB05D0C0A605D00F014AA702D045
:1013B000C0960DD0C0B603D0F5EC0DF008D00F01EB
:1013C0004AAF05D0C0960F014A9FFFD700D0D3EC9B
:1013D0000CF0CCD700EF00F020EE79F00950D926C0
:1013E0000A50DA2209C0DEFF0AC0DDFF20EE77F0E6
:1013F0000950D9260A50DA22000EDF6E20EE78F06E
:101400000950D9260A50DA22000EDF6E20EE75F060
:101410000950D9260A50DA22000EDE6E000EDD6E6B
:1014200020EE7BF00950D9260A50DA22000EDF6E3A
:1014300009C0D9FF0AC0DAFF000EDF6E010E0924D1
:10144000016E000E0A20026E000E046E000E036E86
:10145000000E066E640E056EEBEC0CF0120003C07D
:1014600006F00450076E20EE64F00150D9260250B9
:10147000DA22620EDF60120020EE64F00150D926FD
:101480000250DA22DF50056E0550010DF3500124A1
:10149000D96EF4500220DA6E07C0DFFF20EE64F050
:1014A0000150D9260250DA22DF2A20EE64F00150E2
:1014B000D9260250DA22DF50056E0550010DF35097
:1014C0000124D96EF4500220DA6E06C0DFFF20EE50
:1014D00064F00150D9260250DA22DF2A12001200ED
:1014E000086E000E096E000E0A6E000E0B6E000EE6
:1014F0000C6E100E0D6E08C005F005460546C25074
:101500000518C30B0518C26EC280C0EC0DF010D0D8
:10151000000EC46E000EC36EC282A2EC0DF001502C
:10152000092602500A22000E0B22000E0C2200D0C7
:101530000D060D28D8A4ECD709C005F00AC006F0A6
:10154000040E076ED89006320532072EFBD703C073
:10155000D9FF04C0DAFF05C0DEFF06C0DDFFC29080
:101560001200050E056E000E066E23D0250E08181B
:10157000D8B404D007D0014A022A1BD0000E076E4F
:1015800009D025D001C0D9FF02C0DAFF08C0DFFFB3
:10159000F2D70FD003C0F6FF04C0F7FF034A042AB6
:1015A0000800F5CF08F00850000AD8B410D0EAD7E8
:1015B00000D003C0F6FF04C0F7FF034A042A080066
:1015C000F5CF08F00850D8B402D0D0D700D001C071
:1015D000D9FF02C0DAFF000EDF6E12001200020E09
:1015E0000124066E000E0220076E04C0D9FF05C05C
:1015F000DAFF06C0E1FF07C0E2FFDFCFE7FF044AE2
:10160000052A064A072A04C0D9FF05C0DAFF06C02A
:10161000E1FF07C0E2FFDFCFE7FF064A072A01C06C
:10162000D9FF02C0DAFF080EDF6E20EE01F0015094
:10163000D9260250DA2203C0DFFF20EE75F00150F8
:10164000D9260250DA22040EDE6E000EDD6E120084
:10165000026E000E036E800E046E0450D8B419D0D2
:1016600001D017D0045002140009D8B402D08980E8
:1016700002D0899000D00A0E87EC0DF089820A0E04
:1016800087EC0DF089920A0E87EC0DF0D8900432A9
:10169000E4D789800A0E87EC0DF089820A0E87EC68
:1016A0000DF09280000E80B0010E036E89920350FF
:1016B00012001200026E000E036E92808980800E6E
:1016C000046E0450D8B413D001D011D00A0E87ECA8
:1016D0000DF0898280A004D003500410036E00D066
:1016E0000A0E87EC0DF08992D8900432EAD70250A6
:1016F000D8B403D09290899000D00A0E87EC0DF0F8
:1017000089820A0E87EC0DF089920A0E87EC0DF0A3
:1017100003501200120020EE64F00950D9260A503E
:10172000DA22DF500D6E0D50010DF35009240E6EBC
:10173000F4500A200F6E0EC001F00FC002F00BC073
:1017400003F00CC004F0B1EC0AF00BC001F00CC0C7
:1017500002F065EC0CF020EE64F00950D9260A5036
:10176000DA220150DF26120020EE64F00150D92663
:101770000250DA22630EDF60120020EE64F00150A6
:10178000D9260250DA22DF50046E0450010DF350C6
:101790000124D96EF4500220DA6E03C0DFFF20EE80
:1017A00064F00150D9260250DA22DF2A120012001A
:1017B000000E0F6E0DC005F00EC006F0040E0D24D5
:1017C000076E000E0E20086E030E096E52EC09F033
:1017D0000F26020E0D24056E000E0E20066E050E5D
:1017E0000D24076E000E0E20086E050E096E52ECD9
:1017F00009F00F26120012000E6E0EC00FF0000E40
:10180000106E600E096E000E0A6EECEC09F0600EB0
:10181000016E000E026E010E036E230E046E000EAA
:10182000056E0F0E066E000E076E010E086EF6ECCA
:1018300008F0600E026E000E036E96EC08F01200C7
:101840000E6E0EC00FF0000E106E600E096E000ED0
:101850000A6EECEC09F0600E016E000E026E010ED5
:10186000036E1D0E046E000E056E0F0E066E000E4A
:10187000076E010E086EF6EC08F0600E026E000EA8
:10188000036E96EC08F0120000EE60F07D0EEE6A3A
:10189000E806FDE100EE11F00B0EEE6AE806FDE150
:1018A000CC0EF66E1B0EF76E000EF86E00EE1CF0FE
:1018B00010EE0AF00900F5CFEEFFE550E150FAE135
:1018C000000EF86E0001A9EF09F001C005F002C09A
:1018D00006F003D0054A062A00D005C0F6FF06C070
:1018E000F7FF0800F5500009D8A4F4D701C003F0B1
:1018F00002C004F0031E041E034A042A05500324F8
:10190000016E06500420026E120012008980899236
:101910000A0E87EC0DF089820A0E87EC0DF0899093
:101920000A0E87EC0DF089920A0E87EC0DF0898281
:101930000A0E87EC0DF089800A0E87EC0DF0899273
:101940001200630E036E20EE64F00150D92602509F
:10195000DA2208D00350010DF3500124D96EF4505F
:101960000220DA6E000EDF6E00D003060328D8A432
:10197000F1D71200600E096E000E0A6EECEC09F051
:10198000600E016E000E026E010E036E200E046EDC
:10199000000E056EEFEC0AF0600E026E000E036E94
:1019A00096EC08F01200000E0F014A6F000E0F01B6
:1019B0004B6FD0940F014C950F014C930F014D9339
:1019C0000F014D81C096F29EC090C08ED39E0F0134
:1019D0004D8F0300120001C007F002C008F009D0CB
:1019E00007C0D9FF08C0DAFF03C0DFFF074A082A93
:1019F00000D00506D8A006060528F2E10628D8A4DE
:101A0000EFD71200FAEC0DF0120E0D6E000E0E6EF6
:101A1000D8EC0BF006EC0EF0FDEC0DF0180E0E6E8F
:101A2000000E0F6E15EC0DF01200020E0E24036E68
:101A3000000E0F20046E0A0E70EC0AF00EC003F0C8
:101A40000FC004F0090E70EC0AF012003F0EC2162F
:101A5000C18EC196C198C19AC190C192C1940F0123
:101A6000499F0F01499DC2901200BAEC0CF0640E20
:101A70005EEC0DF0010E20EC0CF0640E5EEC0DF04F
:101A8000080EFCEC0BF01200000E9F6E000EA26E12
:101A9000000EA56E000E9E6E000EA16E000EA46ECE
:101AA00012000F014CA102D00F014C910F014869A7
:101AB0000F014969D388D38AD38C1200026E0D0EB0
:101AC000016EFC0EE82EFED7012EFCD7022EF7D7B2
:101AD00012001200016E948E949CAC88AD84AD8A85
:101AE000AC8E01C0B0FF7E8612000F0148810F014D
:101AF000488389809292929089921200D4EC0DF0E2
:101B000008EC0EF002EC0DF088EC07F01200016E0C
:101B1000030EE82EFED700F0012EFAD712001200B5
:101B2000C096BAEC0CF0640E99EC0DF035EC0DF0AB
:101B30001200016E210EE82EFED700F0012EFAD71A
:101B40001200120000D0C2B2FED7C3CF01F0C4CF42
:101B500002F01200E0EC0DF00A0E5EEC0DF035EC38
:101B60000DF0120075EC0DF0FDEC0DF0F0EC0DF049
:101B700012000F01499593820F0149939386120039
:101B8000C18CC28200D0C2B2FED7C19C1200016ECD
:101B900000D0ADA2FED701C0AEFF12001C506AEC0F
:101BA0000DF0EBEC0DF01200C0960F014B910F0100
:101BB0004C91120065960F013F950F013F9F120057
:101BC000C0960F014A950F014C911200CF4342007D
:101BD000465200534D009380F18CF292F28812002D
:101BE00026EC0DF0B9EC0DF0120035EC0DF0DAEC4E
:101BF0000DF01200929A808A120093948184120050
:101C0000D08EF28C1200000EF26E1200809A12003A
:041C1000F29212003A
:08FFF800AEF718FAA1F881F13F
:00000001FF
